:020000040800F2
:10000000F8680020A502000855310008C32C00083C
:10001000213100084107000871410008000000007C
:100020000000000000000000000000000D020008B9
:100030008107000800000000510200082139000873
:10004000BF020008BF020008BF020008BF0200088C
:10005000BF020008BF020008BF020008BF0200087C
:10006000BF020008BF020008BF02000845070008E1
:10007000BF020008BF020008BF020008BF0200085C
:10008000BF020008BF020008BF020008BF0200084C
:10009000BF020008BF020008BF020008BF0200083C
:1000A000BF020008BF020008BF020008BF0200082C
:1000B000BF020008BF020008BF020008BF0200081C
:1000C000BF020008BF020008BF020008BF0200080C
:1000D000BF020008FD400008BF020008BF02000880
:1000E000BF020008BF020008BF020008BF020008EC
:1000F000BF020008BF020008BF020008BF020008DC
:10010000BF020008BF020008353A0008BF0200081D
:10011000BF020008BF020008453A0008913A0008F3
:10012000BF020008BF020008BF020008BF020008AB
:1001300000F002F800F05AF80AA090E8000C82449F
:100140008344AAF10107DA4501D100F04FF8AFF27C
:10015000090EBAE80F0013F0010F18BFFB1A43F0A5
:1001600001031847AC890000CC8900000A444FF015
:10017000000C10F8013B13F0070408BF10F8014B06
:100180001D1108BF10F8015B641E05D010F8016B4B
:10019000641E01F8016BF9D113F0080F1EBF10F8AF
:1001A000014BAD1C0C1B09D16D1E58BF01F801CBD2
:1001B000FAD505E014F8016B01F8016B6D1EF9D555
:1001C0009142D6D37047000000230024002500266A
:1001D000103A28BF78C1FBD8520728BF30C148BFAA
:1001E0000B6070471FB51FBD10B510BD00F099F929
:1001F0001146FFF7F7FF05F0BBF900F0B7F903B4BC
:10020000FFF7F2FF03BC00F075F90000224B1968FC
:100210000868B0E8F00F80F30988BFF36F8F4FF0E4
:10022000000080F311884EF00D0E704700000000B2
:1002300006480068006880F3088862B661B6BFF3BC
:100240004F8FBFF36F8F00DF00BF00BF08ED00E0EE
:10025000EFF30980BFF36F8F0F4B1A6820E9F00F9F
:10026000106008B54FF0500080F31188BFF34F8F36
:10027000BFF36F8F06F012FC4FF0000080F311887F
:10028000BDE8084019680868B0E8F00F80F30988F5
:10029000BFF36F8F704700BFB0000020EFF3058001
:1002A000704700000948804709480047FEE7FEE71D
:1002B000FEE7FEE7FEE7FEE7FEE7FEE7FEE7FEE716
:1002C00004480549054A064B70470000DD3900081F
:1002D00031010008F8620020F8680020F86400206E
:1002E000F86400200EB5054614460E4613A000F033
:1002F000F0F8284600F0EDF816A000F0EAF83046D5
:1003000000F0E7F815A000F0E4F800218DF80B10DC
:100310000A210DF10A008DF80A1008E094FBF1F2B1
:1003200001FB124294FBF1F4303200F8012D002C55
:10033000F4DC00F0CEF800F0C1F800002A2A2A20F0
:10034000617373657274696F6E206661696C656450
:100350003A2000002C2066696C6520002C206C6916
:100360006E652000032A40F2308010F0030C00F08C
:10037000158011F8013BBCF1020F624498BF11F8DF
:1003800001CB00F8013B38BF11F8013BA2F1040298
:1003900098BF00F801CB38BF00F8013B11F0030310
:1003A00000F02580083AC0F0088051F8043B083A74
:1003B00051F804CBA0E80810F5E7121D5CBF51F816
:1003C000043B40F8043BAFF30080D20724BF11F890
:1003D000013B11F801CB48BF11F8012B24BF00F8F5
:1003E000013B00F801CB48BF00F8012B704710B566
:1003F000203AC0F00B80B1E81850203AA0E818501D
:10040000B1E81850A0E81850BFF4F5AF5FEA027CDD
:1004100024BFB1E81850A0E8185044BF18C918C04C
:10042000BDE810405FEA827C24BF51F8043B40F8ED
:10043000043B08BF7047D20728BF31F8023B48BFD2
:1004400011F8012B28BF20F8023B48BF00F8012B10
:1004500070474FF0000200B5134694469646203987
:1004600022BFA0E80C50A0E80C50B1F12001BFF46D
:10047000F7AF090728BFA0E80C5048BF0CC05DF8D3
:1004800004EB890028BF40F8042B08BF704748BF21
:1004900020F8022B11F0804F18BF00F8012B704795
:1004A00070477047704710B500F02AF8006810BD1B
:1004B00010B5044600F024F8046010BD10B500200B
:1004C00000F022F8FFF790FEBDE81040012000F098
:1004D00011B810B5044602E0641C00F004F820785E
:1004E0000028F9D110BD08B569468DF80000032039
:1004F000ABBE08BD01491820ABBEFEE726000200D6
:10050000004870479862002010B500F03DF8BDE843
:10051000104000F034B80000004870479862002096
:1005200070477546FFF7F8FFAE460500694653462B
:1005300020F00700854618B020B5FFF7C1FEBDE8E2
:1005400020404FF000064FF000074FF000084FF03A
:10055000000B21F00701AC46ACE8C009ACE8C009CB
:10056000ACE8C009ACE8C0098D46704710B5044638
:10057000AFF300802046BDE81040FFF740BE0028E2
:1005800001D0FFF7B7BF704710B5002102A000F0FF
:1005900013F8012010BD0000534947414252543A1C
:1005A0002041626E6F726D616C207465726D696E50
:1005B0006174696F6E00000070B505460C460A2034
:1005C00000E06D1CFFF78FFF35B128780028F8D1C7
:1005D00002E0641CFFF787FF14B120780028F8D1EF
:1005E000BDE870400A20FFF77EBF70B504460025C5
:1005F0002068806800F00100F0B12068806820F079
:1006000001002168886001F0BFF805460EE001F0A6
:10061000BBF8401B022809D9A06A40F01000A06274
:10062000E06A40F00100E062012070BD206880684F
:1006300000F001000028EAD10020F6E770B5054679
:100640006C6AA06A00F05000E0B9A06A40F4007043
:10065000A0622068806800F46020B0F5602F0DD1A2
:10066000207B58B9A06A20F48070A062A06A00F4D0
:10067000805018B9A06A40F00100A062204600F046
:10068000B3F903E0206A016B2846884770BD70B556
:1006900005466C6AA06A40F04000A062E06A40F043
:1006A0000400E062204600F0C4F970BD70B5044655
:1006B000656A284600F0BCF970BD000038B50446F4
:1006C0000025002000902068806800F0010080BBB9
:1006D0002068806840F00100216888601648006842
:1006E0001649B0FBF1F0009002E00098401E009027
:1006F00000980028F9D101F047F8054613E001F011
:1007000043F8401B02280ED9A06A40F01000A062F6
:10071000E06A40F00100E06200BF002084F824009D
:1007200000BF012038BD2068806800F0010000286B
:10073000E5D00020F6E70000AC00002040420F00AA
:1007400000BFFEE710B5024800F010FC10BD00002D
:100750003402002030B590F840500124AC40C56B05
:100760006C60046863604468102C04D10468A26063
:100770000468E16003E00468A1600468E26030BDE1
:1007800070477047F8B5044600260020009000BF6F
:1007900094F82400012801D10220F8BD012084F83A
:1007A000240000BF2046FFF720FF0646002E62D13E
:1007B000A06A20F4885040F00200A062022001F0FC
:1007C000DFF830490968B1FBF0F04000009002E02A
:1007D0000098401E009000980028F9D12046FFF7AD
:1007E0006DFF2068806840F008002168886000F094
:1007F000CBFF054611E000F0C7FF401B0A280CD9CB
:10080000A06A20F0020040F01000A06200BF0020AB
:1008100084F8240000BF0120BFE72068806800F052
:1008200008000028E7D12068806840F004002168B3
:10083000886000F0A9FF054611E000F0A5FF401B0D
:100840000A280CD9A06A20F0020040F01000A06233
:1008500000BF002084F8240000BF01209DE720682D
:10086000806800F004000028E7D1A06A20F00200B0
:1008700040F00100A06200BF002084F8240000BF07
:1008800030468AE7AC00002038B50246002300203D
:10089000009000BF92F82400012801D1022038BD49
:1008A000012082F8240000BF4868072812D210688F
:1008B000406B0C79641E04EB84051F24AC40A043FC
:1008C0000D796D1E05EB85050C68AC40204314685E
:1008D000606327E048680D2812D21068006B0C791D
:1008E000E41F04EB84051F24AC40A0430D79ED1FE9
:1008F00005EB85050C68AC4020431468206311E0CB
:100900001068C06A0C790D3C04EB84051F24AC40D0
:10091000A0430D790D3D05EB85050C68AC402043E7
:100920001468E06208680A2812D31068C0680C785E
:100930000A3C04EB44050724AC40A0430D780A3D73
:1009400005EB45058C68AC4020431468E0600FE07F
:10095000106800690C7804EB44050724AC40A04300
:100960000D7805EB45058C68AC4020431468206188
:100970000868102802D00868112827D1174C106881
:10098000A0421ED11068806800F40000F0B9106821
:10099000806840F400001468A0600868102815D131
:1009A0000F4800680F4CB0FBF4F000EB80004000F3
:1009B000009002E00098401E009000980028F9D1B5
:1009C00004E0906A40F020009062012300BF002004
:1009D00082F8240000BF184661E7000000240140AF
:1009E000AC00002040420F0070B5064601200B49C4
:1009F0000870002213460A4903C907F053FB0CD1C3
:100A00000849488807F0FEFB044622460B46064884
:100A1000064907F0EFF9024A03C270BD300000201A
:100A20000800002078060020AE47E17A546BB340FE
:100A3000704770472DE9F041044600270025002645
:100A4000A84614B90120BDE8F081A06810B1207D4E
:100A500000B100BFA06A30B90020E06284F8240031
:100A6000204600F097F82046FFF7BFFD0746A06A32
:100A700000F01000002873D1002F7ED1A06A20F46E
:100A8000885040F00200A0623F4AD4E90001904241
:100A900008D1E069B0F5402F02D14FF4002002E008
:100AA000E06900E0E0690143207B41EA4000064341
:100AB000A068B0F5807F02D0A068012802D14FF471
:100AC000807000E000200543207D012811D1207BAB
:100AD00038B9A069401E4FF4006141EA4030054337
:100AE00007E0A06A40F02000A062E06A40F0010048
:100AF000E0622068406820F469402843216848602B
:100B00002068806821490840304321688860A068D7
:100B1000B0F5807F02D0A068012802D14FF4807028
:100B200000E00020B0F5807F03D1208A401E4FEA0C
:100B300000582068C06A20F4700040EA080021686C
:100B4000C8622068806812490840B04209D100207C
:100B5000E062A06A20F0020040F00100A06211E013
:100B60000BE0A06A20F0020040F01000A062E06AF2
:100B700040F00100E062012704E0A06A40F01000AC
:100B8000A062012738465EE7003C0140FDF7E1FF27
:100B9000FE0E1FFF10B586B00446002002900390A1
:100BA000049005902249206888423ED100BF214828
:100BB000806940F400701F4988610846806900F42C
:100BC0000070019000BF00BF00BF0846806940F080
:100BD000040088610846806900F00400019000BFAD
:100BE00000BF012002900320039002A9124800F0E8
:100BF0001DFC12481249086000204860002110487E
:100C000081608021C160490001618900416120212A
:100C100081610021C16100F075FB08B1FFF7B1FDF2
:100C200000BF07482062446200BF06B010BD00004C
:100C3000002401400010024000080140080002406A
:100C4000340200202DE9F04104460D4616460027E7
:100C500057492068884203D056492068884205D108
:100C60005348001D006800F4702000E000200028B8
:100C70007ED100BF94F82400012802D10220BDE8F3
:100C8000F081012084F8240000BF2046FFF716FD04
:100C90000746002F6DD1A06A40F60161884340F4F9
:100CA0008070A06243492068884209D14048001DF5
:100CB000006800F4702008B9012002E0002000E084
:100CC000012078B1A06A20F48010A06220684068FA
:100CD00000F4806000B3A06A20F4005040F480501B
:100CE000A06219E0A06A40F48010A0623049206838
:100CF000884203D02F492068884205D12C48001D26
:100D0000006800F4806000E0002028B1A06A20F4B0
:100D1000005040F48050A062A06A00F4805020B1DE
:100D2000E06A20F00600E06201E00020E06200BF1F
:100D3000002084F8240000BF1F48216A88621F48F1
:100D4000216AC8621E48216A08636FF002002168A8
:100D500008602068806840F480702168886022689C
:100D600002F14C0133462A46206A00F011FB01E0F3
:100D70001AE014E02068806800F46020B0F5602F6D
:100D800006D12068806840F4A000216888600CE0EB
:100D90002068806840F480102168886005E000BF0A
:100DA000002084F8240000E00127384667E70000AF
:100DB00000240140002801403D060008AD0600085F
:100DC0008F06000870B50446002594F8210002281B
:100DD00003D00420A0630125C1E02068006820F052
:100DE0000E00216808602068006820F0010021687A
:100DF00008605C492068884252D95A49783920688D
:100E0000884201D1012047E0564964392068884270
:100E100001D1102040E0534950392068884201D167
:100E2000801539E04F493C392068884201D180144F
:100E300032E04C4928392068884202D14FF4803092
:100E40002AE0484914392068884202D14FF48010C2
:100E500022E044492068884201D140041CE0424914
:100E60002068884201D1012016E03F4914312068F2
:100E7000884201D110200FE03B4928312068884288
:100E800001D1801508E038493C312068884201D101
:100E9000801401E04FF480303349091F086051E0AD
:100EA000304978392068884201D1012047E02D4936
:100EB00064392068884201D1102040E02949503926
:100EC0002068884201D1801539E026493C392068E4
:100ED000884201D1801432E02249283920688842B2
:100EE00002D14FF480302AE01E491439206888422C
:100EF00002D14FF4801022E01A492068884201D1C3
:100F000040041CE018492068884201D1012016E005
:100F1000154914312068884201D110200FE0124990
:100F200028312068884201D1801508E00E493C3103
:100F30002068884201D1801401E04FF480300949D3
:100F400080394860012084F8210000BF002084F827
:100F5000200000BF606B10B12046616B88472846B7
:100F600070BD0000800002400804024070B50446D5
:100F7000E06B05682068066894F8401004208840FB
:100F80002840002875D006F004000028FAD0206818
:100F9000006800F0200028B92068006820F00400F4
:100FA00021680860D5492068884254D9D3497839E6
:100FB0002068884201D1042049E0D0496439206882
:100FC000884201D1402042E0CC4950392068884213
:100FD00001D100153BE0C9493C392068884202D163
:100FE0004FF4804033E0C54928392068884202D157
:100FF0004FF480202BE0C14914392068884202D187
:101000004FF4800023E0BD492068884201D1C0042C
:101010001DE0BB492068884201D1042017E0B8498F
:1010200014312068884201D1402010E0B4492831B1
:101030002068884201D1001509E0B1493C3120689F
:10104000884202D14FF4804001E04FF48020AC4947
:10105000091F086054E0A94978392068884201D105
:1010600004204AE0A54964392068884202D1402022
:1010700043E04CE0A14950392068884201D1001575
:101080003BE09E493C392068884202D14FF48040C1
:1010900033E09A4928392068884202D14FF48020F1
:1010A0002BE0964914392068884202D14FF4800021
:1010B00023E092492068884201D1C0041DE0904994
:1010C0002068884201D1042017E08D49143120683E
:1010D000884201D1402010E08949283120688842A7
:1010E00001D1001509E086493C312068884202D1CF
:1010F0004FF4804001E04FF48020804980394860FF
:10110000E06A002802D02046E16A8847F4E094F8BB
:101110004010022088402840002871D006F00200CC
:101120000028FAD02068006800F0200040B920684C
:10113000006820F00A0021680860012084F821007E
:101140006E492068884254D96C49783920688842B1
:1011500001D1022049E0694964392068884201D1FF
:10116000202042E0654950392068884201D140156D
:101170003BE062493C392068884202D14FF400507C
:1011800033E05E4928392068884202D14FF40030AC
:101190002BE05A4914392068884202D14FF40010DC
:1011A00023E056492068884201D180041DE054495B
:1011B0002068884201D1022017E05149143120688B
:1011C000884201D1202010E04D4928312068884212
:1011D00001D1401509E04A493C312068884202D1DA
:1011E0004FF4005001E04FF400304549091F0860FA
:1011F00054E0424978392068884202D102204AE00E
:1012000057E03E4964392068884201D1202042E0FD
:101210003A4950392068884201D140153BE03749AE
:101220003C392068884202D14FF4005033E0334902
:1012300028392068884202D14FF400302BE02F4932
:1012400014392068884202D14FF4001023E02B4962
:101250002068884201D180041DE029492068884225
:1012600001D1022017E0264914312068884201D1BB
:10127000202010E0224928312068884201D1401501
:1012800009E01F493C312068884202D14FF40050E8
:1012900001E04FF4003019498039486000BF002058
:1012A00084F8200000BFA06A30B32046A16A8847B6
:1012B00022E094F84010082088402840E0B106F071
:1012C0000800C8B12068006820F00E00216808609E
:1012D00094F8401001208840E16B48600120A06331
:1012E00084F8210000BF002084F8200000BF206B9C
:1012F00010B12046216B884770BD0000800002407D
:10130000080402400146002209B9012070471E4B23
:10131000086898420BD21D4B0868C01A1423B0FB12
:10132000F3F08000086419480838C8630AE0164BD7
:101330000868C01A1423B0FBF3F080000864124858
:101340000838C863022081F821000868026843F663
:10135000F0708243D1E901031843CB6818430B694D
:1013600018434B6918438B691843CB6918430243F0
:101370000868026000208863012081F821000020B5
:1013800081F8200000BFC1E70804024008000240C5
:101390002DE9F04104460D4616461F464FF0000861
:1013A00000BF94F82000012802D10220BDE8F0819E
:1013B000012084F8200000BF94F8210001282CD1DE
:1013C000022084F821000020A0632068006820F03B
:1013D0000100216808603B46324629462046FFF757
:1013E000B9F9E06A30B12068006840F00E00216869
:1013F00008600BE02068006820F0040021680860A5
:101400002068006840F00A002168086020680068D1
:1014100040F001002168086006E000BF002084F869
:10142000200000BF4FF002084046BFE72DE9F84713
:10143000024600239C467BE14FF0010808FA03F4C2
:10144000D1F8008008EA0400A0427DD1DFF8F4A2C0
:10145000D1F80480A8EB0A09D0453AD014DCB8F1E1
:10146000030F50D009DCB8F1000F31D0B8F1010FF3
:101470001CD0B8F1020F49D120E0B8F1110F18D0FB
:10148000B8F1120F42D11EE0B9F5881F25D006DC55
:10149000B9F5803F20D0B9F5801F37D11AE0B9F5F2
:1014A000001F18D0B9F5041F30D117E0D1F80CC0D7
:1014B0002DE0D1F80C8008F1040C28E0D1F80C8064
:1014C00008F1080C23E0D1F80C8008F10C0C1EE0A8
:1014D00000BF00BF00BF00BF00BF00BFD1F8088041
:1014E000B8F1000F02D14FF0040C0BE0D1F80880E6
:1014F000B8F1010F03D14FF0080C146102E04FF076
:10150000080C546103E04FF0000C00E000BF00BF86
:10151000FF2801D8904601E002F104084646FF2862
:1015200002D84FEA830803E0A3F108084FEA8808CD
:101530004746D6F800804FF00F0909FA07F928EA64
:1015400009080CFA07F900E07AE048EA0908C6F849
:101550000080D1F8048008F08058B8F1805F6FD126
:1015600000BFDFF8E481D8F8188048F00108DFF800
:10157000D891C9F81880C846D8F8188008F0010832
:10158000CDF8008000BF00BF4FEAB9384FEA930999
:1015900058F829504FEA83784FEA18794FF00F082E
:1015A00008FA09F825EA0805DFF8A081424502D1CA
:1015B0004FF0000824E0DFF89881424502D14FF057
:1015C00001081DE0DFF88C81424502D14FF002088E
:1015D00016E0DFF88481424502D14FF003080FE0A6
:1015E000DFF87881424502D14FF0040808E0DFF8C7
:1015F0007081424502D14FF0050801E04FF0060826
:101600004FEA83794FEA197908FA09F848EA05059B
:10161000DFF850814FEA930948F82950D1F8048047
:1016200008F48038B8F5803F0BD1DFF83C81D8F85A
:10163000008048EA0008DFF83091C9F800800AE02D
:1016400075E0DFF82481D8F8008028EA0008DFF888
:101650001891C9F80080D1F8048008F40038B8F572
:10166000003F0ED1DFF8008108F10408D8F80080AF
:1016700048EA0008DFF8F09009F10409C9F8008091
:101680000DE0DFF8E48008F10408D8F8008028EACB
:101690000008DFF8D49009F10409C9F80080D1F8F6
:1016A000048008F48018B8F5801F0ED1DFF8B880E8
:1016B00008F10808D8F8008048EA0008DFF8A89088
:1016C00009F10809C9F800800DE0DFF89C8008F1F5
:1016D0000808D8F8008028EA0008DFF88C9009F1A3
:1016E0000809C9F80080D1F8048008F40018B8F59A
:1016F000001F0ED1DFF8708008F10C08D8F80080C8
:1017000048EA0008DFF8609009F10C09C9F8008088
:101710000DE0DFF8548008F10C08D8F8008028EAC2
:101720000008DFF8449009F10C09C9F800805B1C3F
:10173000D1F8008028FA03F8B8F1000F7FF47CAEEE
:10174000BDE8F887000011100010024000080140B9
:10175000000C01400010014000140140001801403D
:10176000001C01400800014000040140024693684B
:101770000B400BB1012000E0002070470AB101616D
:1017800001E00B04036170470148006870470000E6
:10179000A000002003480068034909780844014973
:1017A00008607047A0000020A800002010B508487D
:1017B000006840F0100006490860032000F0CCF8F3
:1017C000002000F007F800F049F8002010BD0000EC
:1017D0000020024070B588B0044600250026002293
:1017E0002146372000F07AF8372000F067F800BF74
:1017F0001648C06940F020001449C8610846C06915
:1018000000F02000019000BF00BF02A903A800F073
:10181000B7FA00F0DDFA45000D48B5FBF0F0461EC2
:101820000C480D49086040F2E7310B48C160466042
:1018300000210161816000F0A3FD20B9064800F09D
:10184000F7FD08B070BD0120FBE70000001002406A
:1018500040420F0000140040200F002008B500BFD8
:101860001448806940F00100124988610846806987
:1018700000F00100009000BF00BF00BF0846C06933
:1018800040F08050C8610846C06900F08050009068
:1018900000BF00BF00220F21901E00F01FF800BF04
:1018A0000549486820F0E06040F00070486000BFE3
:1018B00008BD00000010024000000140014608463B
:1018C000002809DB00F01F0301229A4043099B0016
:1018D00003F1E023C3F8002100BF70472DE9F05F5A
:1018E00080460D461646002702F058FC074639464A
:1018F0002A46334601F00700C0F1070ABAF1040F87
:1019000002D94FF0040A01E0C0F1070AD14600F104
:10191000040ABAF1070F02D24FF0000A01E0A0F169
:10192000030AD4464FF0010A0AFA09FAAAF1010A99
:101930000AEA020A0AFA0CFA4FF0010B0BFA0CFB46
:10194000ABF1010B0BEA030B4AEA0B0421464046BC
:1019500002F02CFCBDE8F09F00BF00F00702064B30
:1019600019684FF6FF031940044B0B4343EA022169
:10197000014B196000BF70470CED00E00000FA0554
:101980002DE9F04385B0064642A30FCB01AC0FC44E
:1019900044A0006800904FF00008002500270024B4
:1019A000A146042E36D004DC012E3BD0022E6BD192
:1019B0005FE0082E32D0102E66D13B4844680068A4
:1019C00000F0807000B301A8C4F38341475C04F4C5
:1019D000803070B134484068C0F340401DF800804A
:1019E00004F4803040B13148B0FBF8F000FB07F55B
:1019F00002E02F4807FB00F52B48406800F4800008
:101A0000B0F5800F01D1A94603E068000321B0FBC7
:101A1000F1F93AE000F0FCF9814636E000F0F8F91F
:101A2000814632E02048046A04F44070B0F5807FBB
:101A300005D104F0020010B14FF4004918E004F49D
:101A40004070B0F5007F07D11748406A00F00200EF
:101A500010B149F640490BE004F44070B0F5407F06
:101A600006D11148006800F4003008B14FF2244953
:101A70000BE000F0BDF90C494968C1F38131491C04
:101A80004900B0FBF1F900E000BF00BF484605B0D7
:101A9000BDE8F08302030405060708090A0B0C0DD4
:101AA0000E0F1010010200000010024000127A0018
:101AB00000093D00F8B5044600260025207800F016
:101AC000010000286BD000274348C06900F0805017
:101AD00070B900BF4048C06940F080503E49C861BD
:101AE0000846C06900F08050009000BF00BF012789
:101AF0003A48006800F48070B0B93848006840F493
:101B0000807036490860FFF73FFE064606E0FFF7A3
:101B10003BFE801B642801D90320F8BD2F480068D4
:101B200000F480700028F2D02B48006A00F4407561
:101B30002DB3A08800F44070A84220D02648006A47
:101B400020F44075012026490860002008602248E2
:101B5000056205F0010090B1FFF716FE064608E0A9
:101B6000FFF712FE801B41F28831884201D9032021
:101B7000D3E71948006A00F002000028F0D01648A8
:101B8000006A20F440706168084313490862012F1D
:101B900004D10846C06920F08050C86100BF207899
:101BA00000F00200022807D10B48406820F44040B2
:101BB000A168084308494860207800F01000102808
:101BC00007D10548406820F4800061690843024954
:101BD00048600020A1E700000010024000700040B3
:101BE000400442427047000070B504460D460CB9EF
:101BF000012070BD5A48006800F00700A8420ED2CC
:101C00005748006820F007002843554908600846F7
:101C1000006800F00700A84201D00120E9E7207821
:101C200000F0020002281DD1207800F004000428F2
:101C300005D14C48406840F4E0604A49486020784B
:101C400000F00800082805D14648406840F460507C
:101C5000444948604348406820F0F000A1680843C8
:101C600040494860207800F0010078B3606801289E
:101C700006D13C48006800F4003090B90120B8E774
:101C80006068022806D13748006800F0007040B94B
:101C90000120AEE73348006800F0020008B90120D7
:101CA000A7E73048406820F00300616808432D49E9
:101CB0004860FFF769FD064609E0FFF765FD801BF8
:101CC00041F28831884202D9032092E707E0254893
:101CD000406800F00C006168B0EB810FEDD1204846
:101CE000006800F00700A8420ED91D48006820F0E7
:101CF000070028431A4908600846006800F00700FA
:101D0000A84201D0012074E7207800F004000428E4
:101D100007D11448406820F4E060E16808431149A5
:101D20004860207800F00800082808D10D48406875
:101D300020F46050216940EAC1000A49486000F07F
:101D400067F808494968C1F30311074A515CC84064
:101D50000649086006480068FFF73CFD002048E798
:101D6000002002400010024028880008AC0000203B
:101D7000A400002001200149C864704700004242CD
:101D80000F2202600D4A526802F0030242600B4AC1
:101D9000526802F0F0028260084A526802F4E0627F
:101DA000C260064A526802F46052D2080261044AD4
:101DB000126802F007020A6070470000001002403B
:101DC000002002400148006870470000AC0000207D
:101DD00000B5FFF7F7FF04494968C1F30221034A40
:101DE000515CC84000BD0000001002403888000867
:101DF00000B5FFF7E7FF04494968C1F3C221034A70
:101E0000515CC84000BD0000001002403888000846
:101E1000F0B585B00FF26C0C9CE8E01001A8A0E8CA
:101E2000E0101CA52D68009500210022002300244D
:101E30000020194D696801F00C05F5B1042D02D0A0
:101E4000082D19D101E0154819E001ADC1F3834611
:101E5000AC5D01F4803555B10F4D6D68C5F340455B
:101E60001DF805200D4D6543B5FBF2F302E00C4D66
:101E700004FB05F3184602E000BF084800BF00BF9E
:101E800005B0F0BD02030405060708090A0B0C0D96
:101E90000E0F1010010200000010024000127A0024
:101EA00000093D0010B50648806800F080008028D9
:101EB00004D1FFF797FE80200149887210BD000011
:101EC00000100240F8B504460CB90120F8BD207896
:101ED00000F00100002878D0F848406800F00C00BD
:101EE00004280CD0F548406800F00C00082811D1F7
:101EF000F248406800F48030B0F5803F0AD1EF48E6
:101F0000006800F4003000285FD0606800285CD1D1
:101F10000120DBE700BF6068B0F5803F06D1E748ED
:101F2000006840F48030E549086028E0606858B9EE
:101F3000E248006820F48030E04908600846006804
:101F400020F4802008601AE06068B0F5A02F0BD163
:101F5000DA48006840F48020D849086008460068E4
:101F600040F4803008600AE0D448006820F48030F3
:101F7000D24908600846006820F48020086000BF4D
:101F8000606888B1FFF700FC054606E0FFF7FCFB40
:101F9000401B642801D9032098E7C848006800F472
:101FA00000300028F2D010E0FFF7EEFB054606E017
:101FB000FFF7EAFB401B642801D9032086E7BF48EE
:101FC000006800F400300028F2D1207800F0020010
:101FD000022857D1B948406800F00C0050B1B7480A
:101FE000406800F00C00082818D1B448406800F49C
:101FF000803098B9B148006800F0020020B1206933
:10200000012801D0012061E7AC48006820F0F80009
:10201000616940EAC100A949086033E02069E8B17C
:102020000120A7490860FFF7AFFB054606E0FFF770
:10203000ABFB401B022801D9032047E79F480068FB
:1020400000F002000028F2D09C48006820F0F80060
:10205000616940EAC1009949086013E0002098498D
:102060000860FFF791FB054606E0FFF78DFB401B7C
:10207000022801D9032029E79048006800F00200F7
:102080000028F2D1207800F0080008282DD1A0699E
:10209000B8B101208B490860FFF776FB054606E0E2
:1020A000FFF772FB401B022801D903200EE783488B
:1020B000406A00F002000028F2D0012001F04EF842
:1020C00013E000207F490860FFF75EFB054606E04D
:1020D000FFF75AFB401B022801D90320F6E6774898
:1020E000406A00F002000028F2D1207800F00400DD
:1020F000042873D100277148C06900F0805070B97E
:1021000000BF6E48C06940F080506C49C861084605
:10211000C06900F08050009000BF00BF01276A48EE
:10212000006800F48070B0B96748006840F48070BF
:1021300065490860FFF728FB054606E0FFF724FB2A
:10214000401B642801D90320C0E65F48006800F402
:1021500080700028F2D000BFE068012806D15748FF
:10216000006A40F001005549086227E0E06858B96C
:102170005248006A20F00100504908620846006A8F
:1021800020F00400086219E0E06805280BD14B48F4
:10219000006A40F00400494908620846006A40F0BD
:1021A000010008620AE04548006A20F00100434946
:1021B00008620846006A20F00400086200BFE06878
:1021C000A0B1FFF7E1FA054609E0FFF7DDFA401B91
:1021D00041F28831884202D9032077E622E037486D
:1021E000006A00F002000028EFD012E0FFF7CCFAFE
:1021F000054608E0FFF7C8FA401B41F288318842E3
:1022000001D9032062E62D48006A00F00200002890
:10221000F0D1012F05D12948C06920F0805027490D
:10222000C86100BFE069C8B32448406800F00C00F2
:10223000082860D0E069022848D1002020490866BB
:10224000FFF7A2FA054606E0FFF79EFA401B0228B8
:1022500001D903203AE61948006800F00070002810
:10226000F2D1206AB0F5803F07D11448406820F4CD
:102270000030A168084311494860D4E908010843C7
:102280000E49496821F4741108430C494860012043
:102290000B490866FFF778FA054607E03DE0FFF7CF
:1022A00073FA401B022801D903200FE60348006897
:1022B00000F000700028F2D02FE000000010024073
:1022C0000000424280044242007000400020144955
:1022D0000866FFF759FA054606E0FFF755FA401B76
:1022E000022801D90320F1E50E48006800F00070D3
:1022F0000028F2D111E0E069012800D1E6E50948A3
:10230000466806F48031206A814204D106F47011D7
:10231000606A814201D00120D8E50020D6E50000A6
:1023200000004242001002407047704710B502465C
:1023300000BF92F83C00012801D1022010BD01200D
:1023400082F83C0000BF022082F83D00106843681C
:102350001068846823F070030868034324F0800445
:10236000486804431068436010688460012082F864
:102370003D0000BF002082F83C0000BF00BFDDE749
:1023800010B504460CB9012010BD94F83D0028B9E1
:10239000002084F83C00204600F00CF8022084F86D
:1023A0003D00211D206801F07BFB012084F83D00E9
:1023B0000020E9E738B504461A492068884216D15A
:1023C00000BF1948C06940F008001749C8610846B5
:1023D000C06900F00800009000BF00BF0022052186
:1023E0003220FFF77BFA3220FFF768FA19E00F4935
:1023F0002068884215D100BF0B48C06940F010002A
:102400000949C8610846C06900F01000009000BF8B
:1024100000BF002205213620FFF760FA3620FFF7C3
:102420004DFA38BD000C0040001002400010004082
:1024300001460868C06840F001000B68D860086871
:10244000806800F00702062A05D00868006840F09E
:1024500001000B6818600020704701460868C068DA
:1024600020F001000A68D06000BF0868006A41F2ED
:102470001112104050B90868006A9210104028B933
:102480000868006820F001000A68106000BF0020A2
:1024900070472DE9F04104460D4600BF94F83C001A
:1024A000012802D10220BDE8F081012084F83C001F
:1024B00000BF022084F83D002068866826F0770679
:1024C00026F47F46206886602868502833D00CDCCC
:1024D000202850D004DC00284BD0102851D149E0EE
:1024E000302849D040284CD139E060282DD07028C0
:1024F00007D0B0F5805F03D0B0F5005F41D10DE0AB
:1025000040E0D5E902136A68206801F028FB2068E2
:10251000866846F077062068866033E0D5E90213C6
:102520006A68206801F01BFB2068806840F48040E6
:102530002168886026E0EA686968206801F000FC8C
:102540005021206801F016FB1CE0EA6869682068E9
:1025500001F009FC6021206801F00CFB12E0EA6840
:102560006968206801F0ECFB4021206801F002FB63
:1025700008E000BF00BF00BF2968206801F0FAFA38
:1025800000E000BF00BF012084F83D0000BF002034
:1025900084F83C0000BF00BF85E7704710B50446D3
:1025A00020680069C0F34000D8B12068C068C0F35B
:1025B0004000B0B16FF0020021680861012020776F
:1025C0002068806900F0030018B12046FFF7E5FF9E
:1025D00005E0204600F0E8F8204600F09DF90020D4
:1025E000207720680069C0F38000D8B12068C068F7
:1025F000C0F38000B0B16FF00400216808610220D0
:1026000020772068806900F4407018B12046FFF7F9
:10261000C4FF05E0204600F0C7F8204600F07CF932
:102620000020207720680069C0F3C000D8B120687E
:10263000C068C0F3C000B0B16FF008002168086145
:10264000042020772068C06900F0030018B12046FC
:10265000FFF7A3FF05E0204600F0A6F8204600F0B3
:102660005BF90020207720680069C0F30010D8B122
:102670002068C068C0F30010B0B16FF0100021688E
:102680000861082020772068C06900F4407018B104
:102690002046FFF782FF05E0204600F085F820463F
:1026A00000F03AF9002020772068006900F001006E
:1026B00058B12068C06800F0010030B16FF001002F
:1026C00021680861204600F055F920680069C0F3D0
:1026D000C01058B12068C068C0F3C01030B16FF0AE
:1026E0008000216808612046FFF71EFE206800690F
:1026F000C0F3801058B12068C068C0F3801030B1BA
:102700006FF0400021680861204600F03FF9206822
:102710000069C0F3401058B12068C068C0F3401091
:1027200030B16FF02000216808612046FFF7FDFD01
:1027300010BD000010B586B0044600200290039042
:102740000490059014492068884222D100BF1348A4
:10275000806940F00800114988610846806900F0EE
:102760000800019000BF00BF1020029002200390DB
:102770000320059002A90A48FEF758FE00BF094948
:10278000486820F4406040F0E06040F40060486039
:1027900000BF06B010BD0000000400400010024061
:1027A000000C014000000140704770B504460D4622
:1027B000164600BF94F83C00012801D1022070BDEC
:1027C000012084F83C0000BF022084F83D0036B1AF
:1027D000042E1BD0082E31D00C2E5ED145E02946A8
:1027E000206801F0D1F92068806940F00800216874
:1027F00088612068806920F0040021688861206871
:102800008069296908432168886147E02946206872
:1028100001F0F2F92068806940F400602168886165
:102820002068806920F48060216888612068806960
:10283000296940EA0120216888612FE02946206843
:1028400001F018FA2068C06940F008002168C861EA
:102850002068C06920F004002168C8612068C06950
:10286000296908432168C86118E02946206801F0F9
:102870003DFA2068C06940F400602168C8612068A2
:10288000C06920F480602168C8612068C069296936
:1028900040EA01202168C86100E000BF00BF0120BC
:1028A00084F83D0000BF002084F83C0000BF00BF5A
:1028B00085E710B504460CB9012010BD94F83D0021
:1028C00028B9002084F83C00204600F00DF80220D2
:1028D00084F83D00211D206801F0E2F8012084F811
:1028E0003D000020E9E7000008B5094A016891426F
:1028F0000DD100BF0749C96941F00201054AD16104
:102900001146C96901F00201009100BF00BF08BD76
:1029100000040040001002407047000070B50446FB
:102920000E4601223146206801F008F90F4920685F
:10293000884203D00E492068884201D1012000E07E
:10294000002028B12068406C40F4004021684864B1
:102950002068806800F00705062D05D02068006813
:1029600040F0010021680860002070BD002C01408B
:102970000034014010B5044603492068884201D163
:10298000FEF708FF10BD00000014004070477047BC
:102990002DE9F0470446206805682068C66820686D
:1029A00047694FF00008C14605F00F08B8F1000F65
:1029B0000AD105F0200038B106F0200020B12046F1
:1029C00001F00FFABDE8F087B8F1000F6DD007F005
:1029D000010018B906F49070002866D005F00100D7
:1029E00030B106F4807018B1E06B40F00100E06394
:1029F00005F0040030B107F0010018B1E06B40F0C1
:102A00000200E06305F0020030B107F0010018B1E8
:102A1000E06B40F00400E06305F0080030B107F01F
:102A2000010018B1E06B40F00800E063E06B68B3B0
:102A300005F0200028B106F0200010B1204601F07A
:102A4000D0F920684069C0F38019E06B00F00800FD
:102A500010B9B9F1000F22D0204601F0A2F9206888
:102A6000406900F04000B0B12068406920F04000AB
:102A700021684861606B50B11748616B4863606BB7
:102A8000FEF7A0F910B1606B416B88470CE020465F
:102A9000FFF77DFF08E02046FFF779FF04E02046BE
:102AA000FFF775FF0020E0638CE705F0800030B190
:102AB00006F0800018B1204601F0B6FA82E705F072
:102AC000400030B106F0400018B1204601F079F91D
:102AD00078E700BF76E700008F3D000810B5044698
:102AE0000CB9012010BDA06900B100E000BF94F84E
:102AF000390028B9002084F83800204600F028F872
:102B0000242084F839002068C06820F4005021682F
:102B1000C860204601F0B8F92068006920F49040B0
:102B2000216808612068406920F02A002168486116
:102B30002068C06840F400502168C8600020E0634D
:102B4000202084F8390084F83A000020CAE7000009
:102B500010B586B0044600200290039004900590C2
:102B60001E492068884236D100BF1D48806940F464
:102B700080401B4988610846806900F480400190CC
:102B800000BF00BF00BF0846806940F004008861B4
:102B90000846806900F00400019000BF00BF48159E
:102BA0000290022003900320059002A90D48FEF731
:102BB0003DFC4FF48060029000200390049002A935
:102BC0000848FEF733FC002205212520FEF786FE8B
:102BD0002520FEF773FE06B010BD0000003801404E
:102BE000001002400008014070472DE9F8430446F8
:102BF0000D4616461F464FF0000994F8390020286C
:102C00005CD105B116B90120BDE8F88300BF94F886
:102C10003800012801D10220F6E7012084F83800AD
:102C200000BF0020E063212084F83900FEF7ACFDEE
:102C30008146A684E6842BE0E08C401EE084A068F8
:102C4000B0F5805F16D14B460022802120460097C8
:102C500001F01EFA08B10320D6E7A846B8F8000034
:102C6000C0F3080021684860206908B9AD1C0FE076
:102C70006D1C0DE04B46002280212046009701F09C
:102C800007FA08B10320BFE715F8010B2168486077
:102C9000E08C0028D0D14B460022402120460097EE
:102CA00001F0F6F908B10320AEE7202084F83900DE
:102CB00000BF002084F8380000BFA5E70220A3E78A
:102CC000704700BFFEE700000EB5002000900190A5
:102CD00002901F481F49086081151E48816001212C
:102CE0000173002101754FF46021C1610020194971
:102CF0004860032117480161FDF79CFE08B1FDF70C
:102D000040FD0020009001200190062002906946BD
:102D10001048FDF7B9FD08B1FDF733FD1120009013
:102D2000022001900720029069460A48FDF7ACFD99
:102D300008B1FDF726FD10200090032001906946A0
:102D40000448FDF7A1FD08B1FDF71BFD0EBD000015
:102D5000002401400402002008B500BF0A48406971
:102D600040F00100084948610846406900F0010050
:102D7000009000BF00BF002205210B20FEF7AEFD32
:102D80000B20FEF79BFD08BD0010024000B591B07E
:102D900003F0E0FA2C48006880BB00202B49087043
:102DA0002B492C482C4AC2E900104FF49670264952
:102DB00008604FF4AF702949086040F28A20284922
:102DC000086028482849294A03C2294829492A4A2B
:102DD00003C24FF4E1302949086001202849086006
:102DE000FA202849086040F2E240274908600020A4
:102DF000264908602649086003F014FB254903C9E9
:102E0000CDE90F01002201210FA802F05DFC22494B
:102E100008601C221F49083108A8FDF7E8FA0021C4
:102E200008A802F021FC1D4908601C221949243120
:102E300001A8FDF7DCFA002101A802F015FC1849F1
:102E4000086011B000BD0000400000201E000020FE
:102E50004D158C4AEA04A43F3800002044000020AD
:102E600048000020F085C954C1A8B43F5800002094
:102E700085EB51B81E85F93F600000207C000020E2
:102E800080000020680000206C0000204C00002022
:102E900050000020E88700088C00002084000020FB
:102EA0008800002000B585B00020019002900390BA
:102EB000049000BF3C48806940F020003A49886196
:102EC0000846806900F02000009000BF00BF00BFEE
:102ED0000846806940F0040088610846806900F077
:102EE0000400009000BF00BF00BF0846806940F0AA
:102EF000080088610846806900F00800009000BF63
:102F000000BF00BF0846806940F010008861084695
:102F1000806900F01000009000BF00BF01224FF454
:102F200040712248FEF72AFC012211022048FEF7D8
:102F300025FC00224FF480511D48FEF71FFC4FF482
:102F400040500190002002900120039001A91948EF
:102F5000FEF76CFA4FF440700190012002900020BF
:102F600003900220049001A91048FEF75FFA4FF485
:102F700080700190012002900020039002200490B4
:102F800001A90B48FEF752FA4FF48050019001203E
:102F90000290002003900320049001A90448FEF74A
:102FA00045FA05B000BD00000010024000100140CD
:102FB00000080140000C014000B589B000200790D6
:102FC00008901C216846FDF744FA18481849086023
:102FD0008F20486000211648816042F20F71C16065
:102FE0000021016180218161FFF763FC08B1FDF7D9
:102FF000C8FB00200790089007A90D48FFF796F935
:1030000008B1FDF7BEFB6020009000200190029007
:103010000490002269460648FFF7C7FB08B1FDF798
:10302000B0FB0348FFF786FB09B000BD0004004079
:10303000200E002000B587B000200390049005907A
:103040000690019002901448144908604720486097
:1030500000211248816040F2E731C1600021016126
:103060008161FFF78DF908B1FDF78BFB4FF48050BC
:10307000039003A90948FFF70CFA08B1FDF781FB9B
:1030800000200190029001A90448FFF74FF908B110
:10309000FDF777FB07B000BD000C0040600E00207C
:1030A0001CB50020009001900D480E490860632077
:1030B000486000210B4881602321C160802181612B
:1030C000FFF75EF908B1FDF75CFB0020009001906E
:1030D00069460448FFF72AF908B1FDF752FB1CBD09
:1030E00000100040A00E002010B50B480B490860EE
:1030F0004FF4E1304860002108488160C1600161FF
:103100000C21416100218161C161FFF7E7FC08B139
:10311000FDF737FB10BD000000380140E00E002035
:1031200000BFFEE708B50020009008480178084875
:1031300003220368002001F0B3FC01F00DFA00BF88
:1031400001F01EFD012002F07EFAF9E78000002068
:103150007C00002010B5FEF7A5FE10BD08B508499B
:103160000968C9084FF47A72B1FBF2F1414300914A
:1031700000BF00BF00994A1E00920029F9D108BD86
:10318000AC0000202DE9F04786B08246D348008885
:10319000D349086000BFD34800780128FBD1002044
:1031A000D0490870D049088805F02CF80646CF4869
:1031B0000CC8304605F076F804460022CC4B04F0EB
:1031C00019FECC4A03C2CC48006805F01BF806463D
:1031D0000F46CA48006805F015F802AAC3C2C849DC
:1031E00003C9CDE90001C748C2490CC803C902F0B0
:1031F000F6F9044604F0C2FFB8490880C2480068E6
:10320000012832D000202BE0C0490988B34A128837
:10321000914206DB0121BC4A11600021BC4A1160C9
:1032200022E0BA49BB4A126831F81210AB4A128840
:10323000914207DC0121B44A1160B6490968B44AD9
:10324000116011E0B14931F81010A44A128891427E
:1032500005DC0121AC4A1160AD49086004E0401C66
:10326000AC4909688842CFD900BFAB480068012843
:103270007ED0AA48007810B101287AD13DE04FF401
:103280000051A748FEF772FA012800D100E00020A3
:10329000934909681439914A1288914201D9012150
:1032A00000E000218D4A13888D4A1268143293423F
:1032B00001D9012200E000221143084348B1002057
:1032C00091490860944908609648006802F056FAEF
:1032D00012E08E488E49096830F811009249086062
:1032E0008B48006818B901208B49086004E08848C1
:1032F0000068401E864908604EE04FF480518848BF
:10330000FEF734FA012800D100E000207449096872
:103310001439724A1288914201D9012100E000213A
:103320006E4A13886E4A12681432934201D9012200
:1033300000E000221143084348B1002072490860B0
:10334000754908607748006802F018FA22E06F4873
:103350006F49096830F81100734908606C480168CA
:103360006C480068401C81420FD101206A4901E08D
:1033700013E010E008606B48006802F0FFF90A21D2
:103380006848006802F0C6F904E061480068401C23
:103390005F49086000E000BF00BF5B48006801288B
:1033A00000D100E000205C490968012900D100E05B
:1033B0000021084000287DD05848007810B101282D
:1033C00079D141E04FF400515548FEF7CFF901287B
:1033D00009D100204C4908604F49086051480068F5
:1033E00002F0CCF976E03E48006814383B49098881
:1033F000884201D9012000E0002038490A88384974
:10340000096814318A4201D9012100E000210843F2
:10341000A0B1012251024548FEF7B0F900224FF455
:1034200080714348FEF7AAF90020374908603A49FD
:1034300008603C48006802F0A1F94BE0274800888A
:10344000401D3949086045E04FF480513448FEF78B
:103450008DF9012809D100202B4908602E49086008
:103460003048006802F08AF934E01D4800681438DA
:103470001A490988884201D9012000E00020174933
:103480000A881749096814318A4201D9012100E0EC
:1034900000210843B8B1012251022448FEF76EF919
:1034A00000224FF480712248FEF768F90020164987
:1034B000086001E00FE00CE0174908601948006857
:1034C00002F05CF906E005480088401D16490860D6
:1034D00000E000BF00BF06B0BDE8F0877800002024
:1034E0009400002030000020780600200800002012
:1034F00000FEAF4070000020680000206C0000203B
:103500006000002058000020980000207802002071
:1035100090000020400000209C0000201C000020A3
:10352000000C01408C0000203404004000100140D9
:103530000008014088B00322D449D548FDF782FB3A
:1035400000BFD448007800287ED00020D149087000
:10355000D148006808B1012000E00020CE49096888
:10356000491C09B1012100E000210840002870D069
:10357000CA48006808B1012000E00020C749096876
:10358000491C09B1012100E000210840002860D059
:10359000C348006808B1012000E00020C049096864
:1035A000491C09B1012100E000210840002850D049
:1035B000BB480068C0F34F00BA490880B6480068AD
:1035C000B6490968401A0A21B0FBF1F4204604F01C
:1035D00019FEB54A03C24FF0000A33E0B149098829
:1035E000494201EB0A0004F0F6FDCDE90201AF49C2
:1035F00003C981F00041CDE90001DDE9022304F0B7
:1036000051FECDE9040101F0BBFD80460022A84B2C
:1036100004F034FB064632460B46A34903C904F0C6
:10362000E9FB0022A34BCDE9060104F03BFE044672
:1036300004F0A4FD9949098808449F4921F81A001B
:103640000AF1010A964800E003E00068401C824548
:10365000C4D39A48007838B105219948006802F02F
:1036600059F80020954908709648007801282ED115
:103670000020944908708549088804F0C3FD064677
:1036800091480CC8304604F00DFE044600228F4BD2
:1036900004F0B0FB8E4A03C28E48006804F0B2FD0D
:1036A00004460D468C48006804F0ACFD02AA33C203
:1036B0008A4803C8CDE90001894885490CC803C977
:1036C00001F08DFF804604F059FD86490880864848
:1036D000007800287DD00020834908706E496F482B
:1036E00000F000FE6C48006808B1012000E00020F6
:1036F00069490968491C09B1012100E0002108401D
:10370000002877D06548006808B1012000E000205B
:1037100062490968491C09B1012100E00021084003
:10372000002867D05E48006808B1012000E0002052
:103730005B490968491C09B1012100E000210840EA
:10374000002857D056480068C0F34F0055490880FC
:103750005148006851490968401A0A21B0FBF1F448
:10376000204604F04FFD504A03C24FF0000A35E0F6
:103770004C490988494201EB0A0004F02CFDCDE9CF
:1037800002014A4903C981F00041CDE90001DDE9A8
:10379000022304F087FD804601F0F2FC0022444B36
:1037A000CDE9040104F06AFA064632460B463E496A
:1037B00003C904F01FFB044600223E4B04F072FDD7
:1037C000CDE9060104F0DAFC3449098808443A4995
:1037D00000E00FE021F81A000AF1010A3048006801
:1037E000401C8245C4D300204049087002F01AFEF4
:1037F00000F0F0FC3E48007888B300203C49087097
:103800003C483D49294A03C24FF496702449086058
:103810004FF4AF703949086040F28A203849086097
:10382000384939482E4AC2E90010384938482B4AED
:10383000C2E900104FF4E1303649086001203649F2
:103840000860FA202349086040F2E24022490860FB
:103850000020124908601049086002F0E3FD234887
:10386000007830B100202149087002F0DBFD00F043
:10387000B1FC2A48007820B100202849087002F0E5
:1038800069FD012001F0DFFE5BE600007806002004
:10389000040200201A000020500000204C000020EC
:1038A00040000020220000202800002038000020D6
:1038B0000000F03F00002440780200201B000020A0
:1038C0008C000020300000200800002000FEAF40E7
:1038D00070000020680000206C00002060000020C4
:1038E00058000020780000201D0000201F0000204C
:1038F0001E0000204D158C4AEA04A43F440000201D
:1039000048000020F085C954C1A8B43F85EB51B8E8
:103910001E85F93F7C000020800000202000002050
:1039200010B500BF502080F31188BFF34F8FBFF355
:103930006F8F00BF03F0FAFE18B14FF080500449BA
:10394000086000BF002080F3118800BF10BD000098
:1039500004ED00E000B595B028210BA8FCF779FD37
:10396000142106A8FCF775FD18216846FCF771FDC7
:1039700001200B9000040C9000200D9001200F906E
:1039800002201290C10313914FF4E01114910BA87F
:10399000FEF798FA08B1FCF7F4FE0F20069002201B
:1039A0000790002008904FF48060099000200A9052
:1039B000022106A8FEF718F908B1FCF7E2FE022082
:1039C0000090800302906846FEF774F808B1FCF797
:1039D000D8FEFEF7CFF915B000BD00001148006811
:1039E00040F001000F490860084640680E49084051
:1039F0000C494860084600680C49084009490860BD
:103A00000846006820F4802008600846406820F4DA
:103A1000FE0048604FF41F008860C8030449086036
:103A200070470000001002400000FFF8FFFFF6FEA4
:103A300008ED00E010B50248FEF7B0FD10BD000033
:103A4000600E002010B50F480068006900F001000A
:103A5000A0B10C480068C06800F0010070B16FF0C0
:103A6000010008490968086107480088401E80B2C3
:103A70000549088010B90548006880470148FEF7ED
:103A80008DFD10BDA00E0020FE010020440100208D
:103A900010B50248FEF782FD10BD0000200F002087
:103AA00010B50268204B98420ED0204B98420BD0A4
:103AB000B0F1804F08D01E4B984205D01D4B984264
:103AC00002D01D4B984203D122F070024B681A437A
:103AD000154B98420ED0154B98420BD0B0F1804F49
:103AE00008D0134B984205D0124B984202D0124B8B
:103AF000984203D122F44072CB681A4322F080032B
:103B00004C6943EA040202608B68C3620B688362FB
:103B1000054B984202D0054B984201D10B690363D3
:103B20000123436110BD0000002C0140003401401E
:103B30000004004000080040000C004030B501F0D7
:103B40001F05012404FA05F3046A9C430462046A15
:103B500001F01F0502FA05F52C43046230BD30B5B3
:103B60000C46816821F47F4142EA0325254329431D
:103B7000816030BD0A46816821F0700142F0070380
:103B8000194381607047000030B5056A25F00105D2
:103B90000562026A4368846924F0700424F0030417
:103BA0000D682C4322F002028D682A43104DA84272
:103BB00000D103E00F4DA84206D100BF22F0080259
:103BC000CD682A4322F00402094DA84202D0094DD3
:103BD000A84207D123F4807323F400734D692B436B
:103BE0008D692B43436084614D684563026230BD3B
:103BF000002C01400034014030B5056A25F0100565
:103C00000562026A4368846924F4E04424F4407441
:103C10000D6844EA052422F020028D6842EA05126C
:103C2000124DA84200D103E0114DA84207D100BFB8
:103C300022F08002CD6842EA051222F040020B4DCC
:103C4000A84202D00A4DA84209D123F4806323F48C
:103C500000634D6943EA85038D6943EA8503436048
:103C600084614D688563026230BD0000002C014014
:103C70000034014030B5056A25F480750562026A9A
:103C80004368C46924F0700424F003040D682C43D5
:103C900022F400728D6842EA0522124DA84200D13A
:103CA00003E0114DA84207D100BF22F40062CD68A5
:103CB00042EA052222F480620A4DA84202D00A4D4F
:103CC000A84209D123F4805323F400534D6943EAF9
:103CD00005138D6943EA05134360C4614D68C563EC
:103CE000026230BD002C01400034014030B5056A4D
:103CF00025F480550562036A4468C26922F4E042F3
:103D000022F440720D6842EA052223F400538D68C4
:103D100043EA0533084DA84202D0084DA84204D119
:103D200024F480444D6944EA85144460C2614D68BE
:103D30000564036230BD0000002C014000340140E6
:103D400030B50B461446026A056A25F00105056286
:103D5000816921F0F00141EA041122F00A021A43BC
:103D60008161026230BD30B50B461446056A25F00C
:103D7000100505628169026A21F4704141EA04314B
:103D800022F0A00242EA03128161026230BD70B5E6
:103D900005466C6A0020E085E0842046FEF7F7FDCA
:103DA00070BD0168C96821F490710268D160016832
:103DB000496921F0010102685161202180F83A101F
:103DC000704710B504462068C06820F040002168A4
:103DD000C860202084F839002046FEF771FF0020DB
:103DE00010BD70B5044694F83A0022284AD1A06864
:103DF000B0F5805F13D1A56A206940B9206840689A
:103E0000C0F308002880A06A801CA06219E0206826
:103E10004068C0B22880A06A401CA06211E02069FE
:103E200038B920684068C1B2A26A501CA062117003
:103E300007E02068406800F07F01A26A501CA06281
:103E40001170E08D401E80B2E085C8B92068C0685E
:103E500020F020002168C8602068C06820F48070CD
:103E60002168C8602068406920F00100216848612D
:103E7000202084F83A002046FEF7B6FE002070BDF0
:103E80000020FCE70220FAE770B5044621680969C2
:103E900021F44051E2681143226811612269A1684E
:103EA0001143626941EA02052168C96841F20C6266
:103EB000914329432268D1602168496921F4407106
:103EC000A269114322685161564A2168914254D136
:103ED000FDF78EFF00EBC00101EB0011626892005C
:103EE000B1FBF2F100EBC00202EB001263689B0031
:103EF000B2FBF3F26423B2FBF3F202EBC20303EB77
:103F00000212A1EB8201322202EB01116422B1FB09
:103F1000F2F101F0F00100EBC00202EB0012636865
:103F20009B00B2FBF3F26423B2FBF3F201EB02124B
:103F300000EBC00101EB001163689B00B1FBF3F1E2
:103F400000EBC00303EB00136668B600B3FBF6F3A7
:103F50006426B3FBF6F303EBC30606EB0313A1EBF6
:103F60008301322303EB01116423B1FBF3F101F070
:103F70000F0111442268916053E0FDF729FF00EB27
:103F8000C00101EB001162689200B1FBF2F100EB9D
:103F9000C00202EB001263689B00B2FBF3F26423E1
:103FA000B2FBF3F202EBC20303EB0212A1EB8201BC
:103FB000322202EB01116422B1FBF2F101F0F001B7
:103FC00000EBC00202EB001263689B00B2FBF3F24D
:103FD0006423B2FBF3F201EB021200EBC00101EB30
:103FE000001163689B00B1FBF3F100EBC00303EB2E
:103FF00000136668B600B3FBF6F36426B3FBF6F372
:1040000003EBC30606EB0313A1EB8301322303EB9F
:1040100001116423B1FBF3F101F00F011144226897
:10402000916070BD00380140014691F839002128A7
:104030002CD18868B0F5805F0FD10A6A1088C0F370
:1040400008000B685860086918B9086A801C086283
:1040500009E0086A401C086205E00B6A581C086207
:1040600018780B685860C88C401E80B2C88458B954
:104070000868C06820F080000B68D8600868C068D5
:1040800040F040000B68D860002070470220FCE739
:104090002DE9F04104460D4617469846069E21E05C
:1040A000701CF8B12EB1FDF76FFBA0EB0800B04219
:1040B00018D92068C06820F4D0702168C8602068D2
:1040C000406920F0010021684861202084F839000F
:1040D00084F83A0000BF002084F8380000BF0320B5
:1040E000BDE8F081206800682840A84201D1012085
:1040F00000E00020B842D3D00020F1E738B51948DD
:1041000000680068C0F3401516480068C06800F0F9
:1041100020048DB184B114480068804700BF00209E
:10412000009010480068006800900E4800684068E1
:10413000009000BF00BF38BD0A4800680068C0F3A7
:10414000C01048B107480068C06800F0800018B18E
:10415000064800688047EEE70248FEF719FC00BFFA
:10416000E9E70000E00E00203C01002040010020B3
:1041700000BFFEE7490050EAC12018BF04204A0DE5
:1041800018BF40F0010040F2FF72B2EB515F08BF70
:1041900040F00200012808BF05207047024800686F
:1041A000C0F30220704700000CED00E010B50028BD
:1041B00004DB0A07130E054A135406E00A07140E1F
:1041C000034A00F00F031B1FD45410BD00E400E0AD
:1041D00018ED00E000BF00BF00BFBFF34F8F00BF6E
:1041E00000BF00BF0948006800F4E06008490843C8
:1041F000001D0649086000BF00BF00BFBFF34F8F1E
:1042000000BF00BF00BF00BF00BFFDE70CED00E036
:104210000000FA052DE9F0414F1E00EBC7010446EE
:10422000D1E9000115461E4637F006020DD02A4698
:10423000334604F037F87F1E04EBC703D3E90023AD
:1042400003F01CFD37F00602F1D1022F25D0042F18
:1042500013D0062F18BFBDE8F0812A46334604F07C
:1042600021F8D4E90A2303F009FD2A46334604F075
:1042700019F8D4E9082303F001FD2A46334604F077
:1042800011F8D4E9062303F0F9FC2A46334604F07A
:1042900009F8D4E9042303F0F1FC2A46334604F07C
:1042A00001F8D4E9022303F0E9FC2A46334603F07F
:1042B000F9FFD4E90023BDE8F04103F0DFBC01229F
:1042C00004F04CBA40F2013200204FF0E04104F01B
:1042D00045BA0000024A0020110704F03FBA00006E
:1042E00001FDFFFF2DE9F04F89B005460E464FF066
:1042F0000A098C4804888C48006814388949098860
:10430000884201D2012000E0002086490A888649BF
:10431000096814318A4201D2012100E000210840DD
:1043200030B180480088143084B28048046020E0B6
:104330007F48006814387B490988884201D20120EF
:1043400000E0002077490A887949096814318A42D7
:1043500001D2012100E00021084030B171480088FD
:10436000143884B27148046003E06E4800886F49D5
:104370000860642001F067F961E004EB090084B291
:104380006A480460642001F05EF900BF6948007863
:104390000128FBD10020674908706749088803F0AD
:1043A00031FF824665480CC8504603F07BFF074644
:1043B0000022634B03F01EFD624A03C25A480068A4
:1043C00003F020FF074688465948006803F01AFFAB
:1043D000CDE90580079102AA83C25B4803C8CDE9F5
:1043E00000015A4857490CC803C901F0F8F8824641
:1043F00003F0C4FE4B4908804FF480515448FDF748
:10440000B5F9012800D100E0002046490988484A52
:104410001268914201D3012100E0002108434D4977
:104420000978084340B10020404908603D480088B1
:1044300030603C48048806E0642001F004F93C4800
:104440000068844299D300BF642001F0FCF860E06A
:10445000A4EB090084B235480460642001F0F3F84D
:1044600000BF344800780128FBD100203149087092
:104470003149088803F0C6FE824630480CC85046D1
:1044800003F010FF074600222D4B03F0B3FC2D4A2A
:1044900003C22548006803F0B5FE07468846244855
:1044A000006803F0AFFE02AAA2E88301264803C811
:1044B000CDE90001254823490CC803C901F08FF854
:1044C000CDE9060103F05AFE164908804FF4005169
:1044D0001F48FDF74BF9012800D100E000201149E9
:1044E0000988114A1268914201D8012100E0002197
:1044F000084318490978084340B100200B49086077
:104500000848008828600748048806E0642001F015
:104510009AF80548006884429AD800BF012009B083
:10452000BDE8F08F780000206800002034040040CF
:104530006C000020300000207806002008000020D9
:1045400000FEAF40700000206000002058000020F6
:10455000000C01402100002010B50024064800781E
:10456000012806D1054800688047002002490870EC
:1045700000E00624204610BD260100202C0100206A
:104580002DE9F05F06460D464FF0000B2888052800
:1045900048D170784FEA0029B07840EA090909F15A
:1045A00001001FFA80F9F078040230790443012CED
:1045B00035DBB4F5FA6F32DA374600202880012067
:1045C00007F8010B2888401C288004F0070040B140
:1045D0002046E11704EB5171C910491C01F0FF0896
:1045E00005E02046E11704EB5171C1F3C70807F855
:1045F000018B2888401C28800023224649463846E3
:1046000000F044FC8246BAF1000F04D0504601F09D
:10461000DFFD834608E028884044288004E04FF00E
:10462000030B01E04FF0030B5846BDE8F09F2DE966
:10463000F05F06460D464FF0000B2888052847D14D
:1046400070784FEA0029B07840EA090909F10100C1
:104650001FFA80F9F078040230790443012C34DB2E
:10466000B4F5FA6F31DA374600202880022007F8C7
:10467000010B2888401C288004F0070040B1204628
:10468000E11704EB5171C910491C01F0FF0805E066
:104690002046E11704EB5171C1F3C70807F8018BFD
:1046A0002888401C288022464946384600F0F2FB04
:1046B0008246BAF1000F04D0504601F089FD8346CE
:1046C00008E028884044288004E04FF0030B01E014
:1046D0004FF0030B5846BDE8F09F2DE9F047054623
:1046E0000C464FF0000A2088052837D168784FEA39
:1046F0000028A87840EA080808F101001FFA80F8AD
:10470000E87806022E79012E25DB7D2E23DC2F464C
:1047100000202080032007F8010B2088401C208007
:104720007006000E07F8010B2088401C2080002333
:1047300032464146384600F0B1FB8146B9F1000FE0
:1047400004D0484601F044FD824609E0208800EB91
:104750004600208004E04FF0030A01E04FF0030A16
:104760005046BDE8F0872DE9F04705460C464FF06E
:10477000000A2088052837D168784FEA0028A878F1
:1047800040EA080808F101001FFA80F8E8780602FC
:1047900028790643012E24DB7D2E22DA2F460020C5
:1047A0002080042007F8010B2088401C2080700620
:1047B000000E07F8010B2088401C2080324641463D
:1047C000384600F0B9FC8146B9F1000F04D04846E4
:1047D00001F0FEFC824609E0208800EB46002080C4
:1047E00004E04FF0030A01E04FF0030A5046BDE831
:1047F000F0872DE9FC5F04460D46002000902888D4
:104800000A285DDB60784FEA002AA07840EA0A0AAD
:104810000AF101001FFA80FAE078060220790643C7
:1048200060794FEA002BA07940EA0B0B0BF10100F5
:104830001FFA80FBE0790702207A0743607A019033
:10484000012E3BDB7D2E39DC012F37DB792F35DC68
:1048500079000198814231D101233A46594604F149
:104860000A0000F01BFB8146B9F1000F1ED1A046E3
:1048700000202880172008F8010B2888401C288079
:104880007006000E08F8010B2888401C28800023C1
:1048900032465146404600F001FB8146B9F1000F17
:1048A00004D12888022101FB06002880B9F1000FFD
:1048B00006D0484601F08CFC009001E003200090F7
:1048C0000098BDE8FC9F000070B505460C46064800
:1048D00002880649681CFBF745FD03480088401C18
:1048E0002080002070BD00000002002078620020BF
:1048F0002DE9F84304460F464FF000083888052894
:1049000029D160780502A0780543681C85B220791A
:10491000F0B9E078FF2801D0E078C8B900208DF820
:104920000100E078FF2803D101208DF8000002E0AB
:1049300000208DF8000001231A462946684600F041
:10494000A5FA06464EB1304601F042FC804604E02E
:104950004FF0030801E04FF003084046BDE8F8833C
:104960002DE9F04104460F464FF00008388805282D
:1049700012D160780502A0780543681C85B2012336
:104980001A462946E01C00F089FA064636B1304640
:1049900001F01EFC804601E04FF003084046BDE8F0
:1049A000F0812DE9F05F05460E464FF0000B308890
:1049B000052839DD68780702A8780743781C87B294
:1049C000E87804022879044395F805A004F007006C
:1049D00040B12046E11704EB5171C910491C01F0A8
:1049E000FF0805E02046E11704EB5171C1F3C70849
:1049F000012C16DBB4F5F66F13DCD04511D1012381
:104A000022463946A81D00F041FA8146B9F1000F4F
:104A100004D0484601F0DCFB834607E005203080E7
:104A200004E04FF0030B01E04FF0030B5846BDE8E4
:104A3000F09F2DE9F04704460E464FF0000A3088FB
:104A4000062828DB60780702A0780743781C87B225
:104A5000E07805022079054394F80590012D17DBD5
:104A6000782D15DC6806000E484511D101232A4631
:104A70003946A01D00F012FA8046B8F1000F04D0AC
:104A8000404601F0A5FB824607E00520308004E0A7
:104A90004FF0030A01E04FF0030A5046BDE8F087EB
:104AA0002DE9F04705460C4616461F46DDF82090D6
:104AB0004FF000081CB1012C01DBF72C02DD4FF098
:104AC000020835E01C48047005BB1C481C490860FE
:104AD0001C481D4908601D481D4908601D481E49A5
:104AE000086000201D4908601D481E4908601E48D6
:104AF0001E4908601E481F4908604B463A46314629
:104B00000D48007800F0D8F8804602E04FF0020827
:104B100000BF00BFB8F1000F0AD102F017F810B9BA
:104B20004FF0030804E01448057001201349087091
:104B30004046BDE8F087000024010020594E0008DF
:104B40002C010020794E000830010020CD4D0008D6
:104B5000280100200D4D00083401002038010020FC
:104B6000916C00083C010020116E000840010020FB
:104B7000796D000844010020250100202601002055
:104B800038B500254148007808B1062038BD684690
:104B900001F0CAFF012877D19DF8000030B101284B
:104BA00005D0022818D003286DD16BE06BE0384A9D
:104BB00038493948394B1B68984705465DB936482E
:104BC000007837490978884202D03348007810B914
:104BD000022001F0C3FF56E02E48006800783149FA
:104BE0000870012030490870002417E02F4810F8A1
:104BF000340000B914E02D4810F834002949097830
:104C000088420AD1294800EBC40021494268214862
:104C1000006890472449087002E0641C102CE5DB12
:104C200000BF1D48007858B31F480078C8B1002065
:104C3000174908801B48007840F08001144802881A
:104C40000088401C124B1880124800688154164896
:104C50000278184601880088401C18800D480068BA
:104C6000425413480078012800D100BF0848028848
:104C7000084801680A4800780E4B1B6898470546AB
:104C800001E001E000BF00BF00207FE72601002017
:104C9000D6010020D0010020D401002034010020E2
:104CA00024010020D5010020D8010020500100205F
:104CB00025010020280100202DE9F04781460E46FD
:104CC00014461F464FF0000872B63B4608222146A4
:104CD000304601F059FF012802D04FF003080FE0E1
:104CE000B4F5964F01D9232503E060000649B1FBD6
:104CF000F0F5A8B201F09CFF012801D04FF00308A5
:104D000062B64046BDE8F087A07F17002DE9F0416C
:104D100004460D4616464FF00008002772B61348A9
:104D20000088FF2800DC04E0A12211A11CA0FBF7F1
:104D3000D9FA0E480088042812DB0C480188224862
:104D400001F0D8FB60B9204800782070074800883F
:104D5000C01E30801C48401C28604FF0010800E055
:104D6000052762B63846BDE8F0810000E601002064
:104D70002E2E5C4D6964646C6577617265735C545A
:104D8000686972645F50617274795C6D6F6462759A
:104D9000735C7274755C6D627274752E63000000D2
:104DA0007573526376427566666572506F73203C08
:104DB000204D425F5345525F5044555F53495A4519
:104DC0005F4D415800000000786100202DE9F0415E
:104DD00005460E4617464FF0000872B6194800788F
:104DE000012829D1701E1849086001201749088040
:104DF0001548006805700846008838440880084651
:104E000001881148006801F075FB04460F490888C5
:104E1000411C0E4B19800E490C5422121946088869
:104E2000411C19800A490A5401200A4908700121CD
:104E3000002001F0DDFB01E04FF0050862B64046BE
:104E4000BDE8F081DD010020E0010020E401002048
:104E500078610020DC01002010B572B60020054901
:104E600008700021012001F0C3FB01F009FC62B6CB
:104E700010BD0000DD01002010B572B6002108460B
:104E800001F0B6FB01F0F4FB62B610BD10B50446AC
:104E9000012010BD03460120704700002DE9F05F9E
:104EA00004460D4691461E464FF0000A002D01DDD6
:104EB000681E85B2002D7DDB05EB0900102879DC2A
:104EC000002E63D10C2D5DD2DFE805F0060F1B2DFF
:104ED000363F484B535C56598849098888B20112BD
:104EE00004F8011B04F8010B4FE0854909680A2208
:104EF000B1FBF2F188B2011204F8011B04F8010BB6
:104F000043E000227F4B804903C903F0CBF90746F9
:104F100003F034F91FFA80FB4FEA2B2004F8010B51
:104F200004F801BB31E07949098888B2011204F81C
:104F3000011B04F8010B28E07549098888B20112A9
:104F400004F8011B04F8010B1FE07249098888B2BC
:104F5000011204F8011B04F8010B16E04FF0020ADD
:104F600013E06D490878011204F8011B04F8010BE5
:104F70000BE04FF0020A08E04FF0020A05E04FF0A4
:104F8000020A02E04FF0010A00BFB3E0012EFCD19B
:104F90000C2D72D2DFE805F006142136424E5A5E1F
:104FA00084888C9014F8011B08025449086014F896
:104FB000010B00E09CE0096808435049086096E056
:104FC00000BF14F8012B100214F8011B084300EB7A
:104FD000800149004A4A116089E04FF0000B14F843
:104FE000011B4FEA012B14F8010B40EA0B0B58464A
:104FF00003F008F907460022424B02F0FBFE424A4A
:1050000003C274E014F8011B08024049086014F858
:10501000010B096808433D49086068E014F8011B6A
:1050200008023B49086014F8010B09680843384935
:1050300008605CE014F8011B08023649086014F8A7
:10504000010B096808433349086050E001203349E7
:1050500008704CE02E48006808B1012000E00020F4
:105060002C49096809B1012100E0002108402849C4
:105070000968491C11B1012101E035E00021084017
:1050800024490968491C09B1012100E000210840B8
:1050900028B101202249087060781F49087026E075
:1050A00001202049087022E001201F4908701EE0FD
:1050B00001201E4908701AE0022014F8012B10028A
:1050C00014F8011B0843012806D10121184A117068
:1050D0000021184A117006E028B90021144A117005
:1050E0000121144A117002E04FF0010A00BF01E0F3
:1050F0004FF0010A5046BDE8F09F000080000020FC
:105100007C0000200088C3403800002040000020C0
:105110004C000020500000201C0000201A0000203D
:105120001B0000201F000020200000201E00002087
:105130001D0000202100002070B503460020B1F5BD
:10514000806F17DD8D1840F20946B54212DC0A4D1A
:105150002D884C1B0BE0094D2D5D2D1203F8015BD2
:10516000064D2D5D03F8015B641C551EAAB2002A92
:10517000F1DC00E0012070BD1000002012000020D2
:105180002DE9F04D894BCE0F21F0004784B0054644
:105190000C469F4230D38648874211D3C7F3130091
:1051A000284305D004B02846BDE8F04DFFF787B886
:1051B000002E1ABF00200146284604B0BDE8F08D3D
:1051C0007C4A284603F06CF907D20220FBF770F9FD
:1051D00004B0BDE8F04DFFF775B8774A774B284625
:1051E000214603F023F807D20220FBF761F904B04F
:1051F000BDE8F04DFFF76EB87148B84248D271482B
:10520000874215D27048784400EBC6002146D0E9A9
:105210000023284603F086F9CDE900016B48784465
:1052200000EBC600D0E900ABC6F10100861B26E00A
:10523000674A684B2846214603F034F8664A7A44A8
:1052400002EBC603D3E9002302F018FD02F066FF6B
:10525000064602F0C0FF07468846604A604B03F0EE
:1052600021F82A46234603F051F9CDE900015D4AB1
:105270005D4B3846414603F015F882468B46DDE922
:10528000000152465B4603F04DF905460C4618E016
:105290005648874214D2564A564B2846214602F0B9
:1052A000EDFC554E0022334603F0FAF808D204B064
:1052B000334628462146BDE8F04D002202F0DEBC10
:1052C00000262A4623461046194602F0EBFF804688
:1052D00002464A480F460B4605217844FEF79AFFDE
:1052E00042463B4602F0DEFF2A46234603F00EF913
:1052F00007468846E6B302460B4600204FF0804141
:1053000003F010F9CDE902013A464346284621460A
:1053100002F0C8FFDDE9022302F06CFD52465B4655
:1053200003F0F4F8DDE9002303F0FCF80022324B2F
:1053300003F0ECF86FF47F729642A2BF01EB0651C6
:1053400004B0BDE8F08D4FF07A5202EB06521144E2
:105350002B4A03F003FA04460D46FEF70BFF042820
:1053600008BFFEF7B7FF204604B02946BDE8F08D20
:10537000FFE700224FF0804303F0D4F882460E4648
:105380003A4643462846214602F08CFF52463346B1
:1053900002F030FD2A46234603F0C4F804B0002290
:1053A000BDE8F04D144B03F0B1B80000422E86402A
:1053B0000000F07FEF39FAFE51302DD5104987C03B
:1053C000422ED63FB2A2F03F463800003E380000E1
:1053D000FE822B654715F73FFE3700000000E0FE18
:1053E000422EE63F763C7935EF39EA3D0000303E0B
:1053F0009C7500883CE4377E0000F03F9237000047
:1054000018FCFFFF00B501460B48006940F00200A0
:10541000094A106110464161006940F04000106186
:1054200000BF00F029F80028FBD00348006920F0F5
:105430000200014A106100BD0020024003480069DB
:1054400040F08000014908617047000000200240E0
:105450000146086870471CB5024600210091019181
:1054600000236B4610681860121D1B1D1068186021
:10547000DDE900011CBD00000348C06800F0010028
:1054800080F00100704700000020024002480349FC
:105490004860034848607047230167450020024088
:1054A000AB89EFCD00B502460F48006940F001001E
:1054B0000D4B186100BFFFF7DFFF0028FBD0118004
:1054C00000BFFFF7D9FF0028FBD0921C090C118008
:1054D00000BFFFF7D1FF0028FBD00348006920F090
:1054E0000100014B186100BD0020024010B50246CA
:1054F0000B4619461948006940F00100174C20611D
:1055000000BFFFF7B9FF0028FBD00888108000BF5C
:10551000FFF7B2FF0028FBD0921C891C088810807E
:1055200000BFFFF7A9FF0028FBD0921C891C088848
:10553000108000BFFFF7A0FF0028FBD0921C891C41
:105540000888108000BFFFF797FF0028FBD00348B2
:10555000006920F00100014C206110BD00200240D4
:1055600000BFEFF3058008B1012070470020FCE781
:10557000FCF71CF9FEF7EEF9FDF794FCFDF7ECFBE8
:10558000FDF71AFDFDF7B0FDFDF78AFDFDF79CFB69
:10559000FDF750FD0A48FBF7F5F80021094A1160B4
:1055A00051600948FDF7BAF900224FF4007107482D
:1055B000FCF7E4F8FDF7EAFB00F051F800BFFEE766
:1055C0000402002000000020200E002000100140F6
:1055D00001460020842901D0CA1C104470472DE9DF
:1055E000F04F89B006460F4614461D46DDE9148982
:1055F00022462B46DDE9120102F094FF42464B465B
:10560000CDE90401DDE9160102F08CFF82468B46EC
:1056100022462B463046394602F084FF52465B460E
:10562000CDE9000102F03EFECDE90201DDE90423EF
:1056300002F0E0FB42464B46CDE9060102F01EFBBC
:1056400009B0BDE8F08F70B5044625460DB1294676
:1056500000E00121084601F041F9002070BD10B5BD
:1056600001F0B8F9002010BD7FB504460D46606911
:1056700098B1A06988B1B4F90800FFF7A9FF064600
:10568000D4E90510CDE9006102902B462269D4E9E6
:10569000001001F0D9FF039013E0B4F90800FFF700
:1056A00097FF064603A8CDE90060238A9AB22B46ED
:1056B000D4E9001001F096FF012802D0002004B0C8
:1056C00070BD0398FBE700007CB504460D46164606
:1056D000606878B1D4E90001CDE90001012D01D164
:1056E000012000E0002002463346012108A002F01C
:1056F0000EFA7CBD20680090012D01D1012000E050
:10570000002002463346012101A002F0E5F9F0E74E
:10571000000000002DE9FC4106460C460027002051
:105720000190254605B90125FFF71AFFB0B1002009
:1057300001AB2A4609210090304602F05DFA0128AB
:1057400001D0FF2715E0019898B14FF080500A4929
:105750000860BFF34F8FBFF36F8F0AE0002003464E
:105760002A4604210090304602F046FA012800D073
:10577000FF273846BDE8FC8104ED00E07CB5044617
:10578000002500200190FFF7EBFEB0B1002001AB37
:10579000024608210090204602F02EFA012801D08E
:1057A000FF207CBD019898B14FF0805009490860F6
:1057B000BFF34F8FBFF36F8F0AE00020034602460E
:1057C00003210090204602F017FA012800D0FF259F
:1057D0002846E6E704ED00E02DE9F04105460E46D7
:1057E0001C4807681C480068001D00F09FFE50B967
:1057F0001948006890F82C10012088401749096862
:10580000814316480160681C38B936B112480168F6
:10581000091D134800F0E0FE1AE07C190E480068EC
:105820004460BC4207D20C480168091D0D4800685D
:1058300000F0B8FE0CE008480168091D0A4800683D
:1058400000F0B0FE09480068844201D207480460B5
:10585000BDE8F081C4000020B0000020C800002096
:105860007C100020B8000020B4000020E0000020E0
:1058700010B5044600F014FF23480068401C22497C
:1058800008602248006840B9204804600846006863
:1058900001280DD100F016FA0AE01D48006838B959
:1058A0001A480068C06AE16A884201D81748046053
:1058B00018480068401C1749086094F82C10012013
:1058C000884015490968084313490860E16A01EBFB
:1058D0008101124A02EB8100211D00F07DFE00F0E3
:1058E00009FF0B48006868B108480068C06AE16AAF
:1058F000884207D24FF0805009490860BFF34F8FAC
:10590000BFF36F8F10BD0000C0000020B00000206A
:10591000CC000020DC000020C8000020A00F0020E8
:1059200004ED00E008B500F0BBFE12480068E8B9DD
:10593000114800F027FE114800F024FE0E481049DF
:1059400008600E480F49086000200F4B0F4A0C21D9
:1059500000900A2001F040FB0649086008460068F4
:1059600020B10BA10348006800F07CFF00F0C2FEEC
:1059700008BD0000F400002090100020A4100020BA
:10598000EC000020F0000020B810002000110020E2
:10599000546D72510000000010B516E000F080FE5A
:1059A0000C48C068C468201D00F0C0FD0A480068AB
:1059B000401E0949086009480068401E0749086000
:1059C00000F098FE204600F05EF8044800680028C9
:1059D000E4D110BD68100020C0000020BC000020F1
:1059E00070B504460D46206C70B1216CE068084427
:1059F000E0606168E068884201D32068E060284682
:105A0000226CE168FAF7AEFC70BD2DE9F041044666
:105A10000F4615464FF00008A66B206C40B9206871
:105A200060BB606801F026FF80460020606025E0D2
:105A30007DB93946226CA068FAF794FC216CA06805
:105A40000844A060D4E90110884217D32068A06000
:105A500014E03946226CE068FAF784FC216CE068B7
:105A6000401AE0602168E068884203D2216C6068D7
:105A7000401AE060022D01D106B1761E701CA063B1
:105A80004046BDE8F08110B5044694F8510030B9A5
:105A9000206B00F04DFE204600F04AFE1AE094F81C
:105AA0005100012803D1204600F042FE12E094F894
:105AB0005100022801D1012000E0002050B900BFB0
:105AC000502080F31188BFF34F8FBFF36F8F00BF5B
:105AD00000BFFEE710BD00000146084A12681268C8
